:020000040800F2
:100000000050002089080008690500086B050008F9
:100010006D0500086F05000871050008000000006C
:100020000000000000000000000000007305000850
:100030007505000800000000770500087905000834
:10004000D1080008D1080008D1080008D10800082C
:10005000D1080008D1080008D1080008D10800081C
:10006000D1080008D1080008D1080008D10800080C
:10007000D108000881050008D10800089105000892
:10008000A1050008D1080008D1080008D10800081F
:10009000D1080008D1080008D1080008D1080008DC
:1000A000D1080008D1080008D1080008D1080008CC
:1000B000D1080008D1080008D1080008D1080008BC
:1000C000D1080008D1080008D1080008D1080008AC
:1000D000D1080008B1050008C1050008D1050008D5
:1000E000D1080008D1080008D1080008000000006D
:1000F0000000000000000000000000000000000000
:0C01000000000000000000005FF808F1A3
:10010C000348044B834202D0034B03B1184770479A
:10011C000C0000200C000020000000000548064BDD
:10012C001B1AD90F01EBA301491002D0034B03B1E9
:10013C00184770470C0000200C0000200000000045
:10014C0010B5064C237843B9FFF7DAFF044B13B113
:10015C000448AFF300800123237010BD0C00002075
:10016C0000000000141B000808B5054B1BB1054925
:10017C000548AFF30080BDE80840FFF7CFBF00BFD4
:10018C000000000010000020141B000800B5FF2226
:10019C0096460AE010F8013B5340084AD25C82EACA
:1001AC000E02074911F803E061464B1E1FFA83FC4F
:1001BC000029EFD142EA0E205DF804FB2C1C00084C
:1001CC002C1B000810B582B001238DF800300621DD
:1001DC008DF8011000228DF80220A2208DF803006A
:1001EC008DF804208DF805306846FFF7CFFF8DF8A9
:1001FC000600C0F307208DF807000821684600F0C0
:10020C00A3F802B010BD10B584B001238DF80030F6
:10021C0010238DF8013000238DF8023023228DF845
:10022C0003208DF8043002238DF8053004238DF85B
:10023C000630030E8DF80730C0F307438DF80830F5
:10024C00C0F307238DF809308DF80A000B2168469E
:10025C00FFF79CFF8DF80B00C0F307208DF80C0006
:10026C000D21684600F070F804B010BD10B582B0D6
:10027C0001238DF8003006218DF8011000228DF835
:10028C000220A2208DF803008DF804208DF8053093
:10029C006846FFF77BFF8DF80600C0F307208DF84A
:1002AC0007000821684600F067F802B010BD10B5D1
:1002BC0084B001238DF8003010238DF80130002319
:1002CC008DF8023023228DF803208DF804300223A0
:1002DC008DF8053004238DF80630030E8DF80730A9
:1002EC00C0F307438DF80830C0F307238DF80930AD
:1002FC008DF80A000B216846FFF748FF8DF80B00BC
:10030C00C0F307208DF80C000D21684600F034F87E
:10031C0004B010BD08B5FFF755FFFFF7A7FFC820C5
:10032C0000F01CFB0020FFF76EFF0020FFF7BFFF63
:10033C0008BD0000034B1B681A6812F0800FF9D03F
:10034C00586070473C01002070B506460D460024ED
:10035C0004E0305DFFF7EEFF0134A4B2AC42F8D3F9
:10036C0070BD0000034B1B681A6812F0800FF9D0A7
:10037C0058607047F400002070B506460D46002406
:10038C0004E0305DFFF7EEFF0134A4B2AC42F8D3C9
:10039C0070BD000000B583B0124B5A6942F00102E7
:1003AC005A615B6903F001030193019B0022114622
:1003BC000D2000F02DFB0D2000F03AFB0022114621
:1003CC000F2000F025FB0F2000F032FB002211461D
:1003DC00102000F01DFB102000F02AFB03B05DF88C
:1003EC0004FB00BF001002402DE9F04389B004ADBE
:1003FC0000240494059406940794224B9A6942F0C5
:10040C0010029A619A6902F010020192019A9A699B
:10041C0042F004029A619A6902F004020292029A72
:10042C009A6942F008029A619B6903F008030393EE
:10043C00039BDFF8549022464FF40051484600F0DD
:10044C0067FD124E22464FF40051304600F060FD1D
:10045C004FF40058CDF8108001270597069402241C
:10046C0007942946484600F049FCCDF8108011232A
:10047C000593069707942946304600F03FFC09B0D7
:10048C00BDE8F0830010024000100140000C014058
:10049C0072B6FEE710B590B006AC282200212046BB
:1004AC0001F006FB0023019302930393049305933D
:1004BC000223069301220A9210220B920D934FF401
:1004CC0060130F93204600F03FFD78B90F23019382
:1004DC0002210291002303934FF48062049205934E
:1004EC0001A800F063FF18B910B010BDFFF7D0FFE2
:1004FC00FFF7CEFF08B500F00DFAFFF7CBFFFFF7C3
:10050C0073FFFFF747FF00F067F800F07FF800F08B
:10051C0097F8FFF7FFFEFEE782B00E4B9A6942F0A8
:10052C0001029A619A6902F001020092009ADA695A
:10053C0042F08052DA61DB6903F080530193019B36
:10054C00054A536823F0E06343F00073536002B034
:10055C00704700BF0010024000000140FEE7FEE7BC
:10056C00FEE7FEE7FEE770477047704708B500F0FE
:10057C00E3F908BD08B5024800F01EFB08BD00BF3A
:10058C002800002008B5024800F016FB08BD00BF8B
:10059C00B000002008B5024800F00EFB08BD00BFFB
:1005AC006C00002008B5024801F040F908BD00BFFE
:1005BC008401002008B5024801F038F908BD00BFDD
:1005CC003C01002008B5024801F030F908BD00BF1D
:1005DC00F40000207047000008B50A480A4B03607D
:1005EC004FF4E133436000238360C36003610C224A
:1005FC0042618361C36101F05DF800B908BDFFF78A
:10060C0047FFFBE7840100200038014008B50A4889
:10061C000A4B03604FF4E133436000238360C360F3
:10062C0003610C2242618361C36101F043F800B99C
:10063C0008BDFFF72DFFFBE73C0100200044004004
:10064C0008B50A480A4B03604FF4E13343600023BA
:10065C008360C36003610C2242618361C36101F05A
:10066C0029F800B908BDFFF713FFFBE7F4000020E1
:10067C0000480040F0B58BB0044600230693079366
:10068C00089309930368714A934208D0704A9342C5
:10069C004DD0704A934200F090800BB0F0BD6E4B81
:1006AC009A6942F480429A619A6902F480420092FB
:1006BC00009A9A6942F004029A619B6903F0040360
:1006CC000193019B4FF400730693022307930323BA
:1006DC00099306AF614E3946304600F00FFB4FF4DC
:1006EC00806306930025079508953946304600F03F
:1006FC0005FB5B485B4B0360456085608023C360F2
:10070C000561456120238361C56100F0B3F958B9D7
:10071C00534BE3635C6200221146252000F078F90C
:10072C00252000F085F9B8E7FFF7B2FEF0E74A4B59
:10073C00DA6942F40032DA61DA6902F400320292C8
:10074C00029A9A6942F004029A619B6903F00403CD
:10075C000393039B04230693022307930323099318
:10076C0006AF3E4E3946304600F0C8FA08230693D1
:10077C000025079508953946304600F0BFFA3A48EF
:10078C003A4B0360456085608023C3600561456119
:10079C0020238361C56100F06DF958B9324BE363D6
:1007AC005C6200221146262000F032F9262000F06F
:1007BC003FF972E7FFF76CFEF0E7274BDA6942F47A
:1007CC008022DA61DA6902F480220492049A9A692E
:1007DC0042F008029A619B6903F008030593059B9C
:1007EC004FF480630693022307930323099306AF08
:1007FC001F4E3946304600F081FA4FF400630693E1
:10080C000025079508953946304600F077FA1948C7
:10081C00194B0360456085608023C36005614561A9
:10082C0020238361C56100F025F958B9114BE363AE
:10083C005C6200221146272000F0EAF8272000F025
:10084C00F7F82AE7FFF724FEF0E700BF0038014075
:10085C0000440040004800400010024000080140E5
:10086C00B0000020580002406C0000206C000240D8
:10087C00000C01402800002030000240FFF7AAFEC7
:10088C000B480C490C4A002302E0D458C4500433E2
:10089C00C4188C42F9D3094A094C002301E01360B7
:1008AC000432A242FBD301F00BF9FFF723FE704791
:1008BC00000000200C000020601D00080C0000202F
:1008CC00D0010020FEE7000010B504460E4B1A784C
:1008DC004FF47A73B3FBF2F30C4A1068B0FBF3F0ED
:1008EC0000F0B4F868B90F2C01D901200AE00022FD
:1008FC0021464FF0FF3000F08BF8054B1C600020B8
:10090C0000E0012010BD00BF04000020000000200A
:10091C000800002008B5074A136843F01003136061
:10092C00032000F063F80F20FFF7CEFFFFF7F4FD74
:10093C00002008BD00200240034A1168034B1B78BD
:10094C000B441360704700BFCC0100200400002052
:10095C00014B1868704700BFCC01002038B5044625
:10096C00FFF7F6FF0546B4F1FF3F02D0044B1B78AE
:10097C001C44FFF7EDFF401BA042FAD338BD00BF6B
:10098C0004000020002808DB0901C9B200F1604016
:10099C0000F5614080F80013704700F00F0009016A
:1009AC00C9B2014B1954704714ED00E000B500F0CA
:1009BC000700C0F1070CBCF1040F28BF4FF0040C6A
:1009CC00031D062B0FD9C31E4FF0FF3E0EFA0CF081
:1009DC0021EA000199400EFA03FE22EA0E0241EAD6
:1009EC0002005DF804FB0023EEE70000074AD36821
:1009FC0023F4E0631B041B0C000200F4E0600343CF
:100A0C0043F0BF6343F40033D360704700ED00E064
:100A1C0010B50446054BD868C0F30220FFF7C6FF9B
:100A2C0001462046FFF7AEFF10BD00BF00ED00E011
:100A3C00002807DB00F01F02400901239340024A03
:100A4C0042F82030704700BF00E100E00138B0F1FF
:100A5C00807F0BD24FF0E0235861054AF02182F8D9
:100A6C0023100020986107221A61704701207047FB
:100A7C0000ED00E050B310B402460168144B0B4477
:100A8C001448A0FB03031B099B001364124BD36394
:100A9C00022382F8213008686FF30D1053689468B4
:100AAC002343D4682343146923435469234394692F
:100ABC002343D469234303430B6000209063012339
:100ACC0082F8213082F8200010BC7047012070475A
:100ADC00F8FFFDBFCDCCCCCC00000240034690F813
:100AEC002120022A06D004228263002280F82020D2
:100AFC000120704701680A6822F00E020A60016842
:100B0C000A6822F001020A60026CC06B012101FA32
:100B1C0002F2426083F82110002083F82000704715
:100B2C0008B590F82130022B03D0042383630120F5
:100B3C0008BD0268136823F00E0313600268136883
:100B4C0023F0010313600368194A934214D0143242
:100B5C0093421FD0143293421ED0143293421ED0B3
:100B6C00143293421ED01432934202D04FF0807252
:100B7C0003E04FF4801200E001220E4B5A60012377
:100B8C0080F82130002380F82030436B6BB19847FC
:100B9C000020CDE71022F0E74FF48072EDE74FF420
:100BAC008052EAE74FF48032E7E70020C0E700BF4D
:100BBC00080002400000024038B5C36B1A68046894
:100BCC002568016C04238B40134235D015F0040FBB
:100BDC0032D0236813F0200F03D1236823F00403D1
:100BEC0023600368434A934214D01432934218D0C2
:100BFC001432934217D01432934217D014329342CA
:100C0C0017D01432934202D04FF0806203E04FF4BD
:100C1C00800200E00422384B5A60C36A03B1984743
:100C2C0038BD4022F7E74FF48062F4E74FF480427E
:100C3C00F1E74FF48022EEE702238B4013423CD0C5
:100C4C0015F0020F39D0236813F0200F06D123685A
:100C5C0023F00A032360012380F821300368254A1E
:100C6C00934214D0143293421CD0143293421BD0B2
:100C7C00143293421BD0143293421BD01432934241
:100C8C0002D04FF0007203E04FF4001200E0022299
:100C9C00194B5A60002380F82030836A002BBFD098
:100CAC009847BDE72022F3E74FF40072F0E74FF4CA
:100CBC000052EDE74FF40032EAE708238B40134271
:100CCC00AED015F0080FABD0236823F00E032360D1
:100CDC00026CC16B012303FA02F24A60836380F851
:100CEC002130002380F82030036B002B98D09847DC
:100CFC0096E700BF080002400000024070B582B0C9
:100D0C000024A4469EE07C4DAB4214D00CD8A5F533
:100D1C008015AB420FD005F57025AB420BD0A5F575
:100D2C008015AB421FD106E0744DAB4203D005F5E4
:100D3C008035AB4217D18B68A3B1012B0DD042612A
:100D4C00082410E0CC680EE0CC6804340BE0CC68CE
:100D5C00083408E0CC680C3405E00261082402E099
:100D6C00002400E00424BEF1FF0F37D806464FEAFA
:100D7C008C0233680F25954023EA050304FA02F22E
:100D8C00134333604B6813F0805F59D05C4B9A6906
:100D9C0042F001029A619B6903F001030193019BEC
:100DAC004FEA9C02951C574B53F825600CF0030539
:100DBC00AD000F23AB4026EA0306534B984214D0E8
:100DCC0003F58063984279D003F58063984277D01D
:100DDC0003F58063984206D0042307E0061DACF1AE
:100DEC0008029200C5E7032300E00023AB40334325
:100DFC000232444D45F822304B6813F4801F61D009
:100E0C00424A936843EA0E0393604B6813F4001F45
:100E1C005ED03E4AD36843EA0E03D3604B6813F4AA
:100E2C00003F5BD0394A536843EA0E0353604B686A
:100E3C0013F4803F58D0354A136843EA0E0313600D
:100E4C000CF1010C0B6833FA0CF253D0012202FAAC
:100E5C000CF203EA020E32EA0303F1D14B68122BB7
:100E6C003FF651AF122B3FF67EAF01A555F823F09C
:100E7C00430D0008510D00085B0D00086D0D0008B6
:100E8C00730D0008730D0008730D0008730D000836
:100E9C00730D0008730D0008730D0008730D000826
:100EAC00730D0008730D0008730D0008730D000816
:100EBC00730D0008550D0008610D0008012395E71E
:100ECC00022393E7114A936823EA0E0393609CE78D
:100EDC000E4AD36823EA0E03D3609FE70B4A53688C
:100EEC0023EA0E035360A2E7084A136823EA0E03B1
:100EFC001360A5E702B070BD000022100000311095
:100F0C0000100240000001400008014000040140B4
:100F1C000AB10161704709040161704782B0084B46
:100F2C001B68084AA2FB03235B0A00FB03F3019333
:100F3C0000BF019B5A1E0192002BF9D102B07047E1
:100F4C0000000020D34D6210002800F0F18170B534
:100F5C0082B00446036813F0010F2CD0994B5B68E8
:100F6C0003F00C03042B1DD0964B5B6803F00C03B1
:100F7C00082B12D06368B3F5803F41D0002B55D1BC
:100F8C0003F1804303F504331A6822F480321A60AB
:100F9C001A6822F480221A6037E08A4B5B6813F4DB
:100FAC00803FE7D0874B1B6813F4003F03D0636886
:100FBC00002B00F0BF81236813F0020F75D0814B1A
:100FCC005B6813F00C0F5FD07E4B5B6803F00C0377
:100FDC00082B54D02369002B00F08A807A4B012215
:100FEC001A60FFF7B5FC0546764B1B6813F0020F31
:100FFC0075D1FFF7ADFC401B0228F5D903209EE10B
:10100C00704A136843F480331360636843B3FFF78B
:10101C009FFC05466B4B1B6813F4003FCBD1FFF7CD
:10102C0097FC401B6428F5D9032088E1B3F5A02F69
:10103C0009D0644B1A6822F480321A601A6822F4C0
:10104C0080221A60E1E703F18043A3F53C331A6870
:10105C0042F480221A601A6842F480321A60D4E793
:10106C00FFF776FC0546574B1B6813F4003FA2D0E4
:10107C00FFF76EFC401B6428F5D903205FE1514B50
:10108C005B6813F4803FA5D14E4B1B6813F0020F25
:10109C0003D02369012B40F04F814A4A136823F097
:1010AC00F803616943EAC1031360236813F0080F66
:1010BC0033D0A369002B5CD0434B0122C3F88024AE
:1010CC00FFF746FC05463F4B5B6A13F0020F21D13C
:1010DC00FFF73EFC401B0228F5D903202FE1394ACB
:1010EC00136823F0F803616943EAC1031360DCE77A
:1010FC00354B00221A60FFF72BFC0546314B1B6861
:10110C0013F0020FD1D0FFF723FC401B0228F5D9B6
:10111C00032014E10120FFF701FF236813F0040FF3
:10112C0000F09680274BDB6913F0805F34D1254BA0
:10113C00DA6942F08052DA61DB6903F08053019383
:10114C00019B0125214B1B6813F4807F26D0E3689B
:10115C00012B3DD0002B53D103F1804303F5043315
:10116C001A6A22F001021A621A6A22F004021A6246
:10117C0033E0154B0022C3F88024FFF7E9FB05464A
:10118C00104B5B6A13F0020FC7D0FFF7E1FB401B5B
:10119C000228F5D90320D2E00025D3E70B4A1368C7
:1011AC0043F480731360FFF7D3FB0646074B1B68B1
:1011BC0013F4807FCBD1FFF7CBFB801B6428F5D9D0
:1011CC000320BCE0001002400000424200700040CE
:1011DC005F4A136A43F001031362E36833B3FFF70A
:1011EC00B7FB06465A4B1B6A13F0020F2FD1FFF7C1
:1011FC00AFFB801B41F288339842F3D903209EE069
:10120C00052B09D0524B1A6A22F001021A621A6A93
:10121C0022F004021A62E0E74D4B1A6A42F0040213
:10122C001A621A6A42F001021A62D6E7FFF790FBC3
:10123C000646474B1B6A13F0020F08D0FFF788FBDA
:10124C00801B41F288339842F3D9032077E0E5B94B
:10125C00E369002B72D03E4A526802F00C02082A55
:10126C0056D0022B17D03B4B00221A66FFF770FBAF
:10127C000446374B1B6813F0007F47D0FFF768FB21
:10128C00001B0228F5D9032059E0314AD36923F019
:10129C008053D361DCE72F4B00221A66FFF758FB13
:1012AC0005462B4B1B6813F0007F06D0FFF750FB55
:1012BC00401B0228F5D9032041E0236AB3F5803F97
:1012CC001AD023494B6823F47413226A606A0243D0
:1012DC0013434B601F4B01221A66FFF739FB044680
:1012EC001B4B1B6813F0007F0ED1FFF731FB001B6B
:1012FC000228F5D9032022E0154A536823F4003361
:10130C00A1680B435360DCE7002018E0002016E0D6
:10131C00012B16D00E4B5B6803F48031226A91428C
:10132C0011D103F47013626A93420ED1002006E0CF
:10133C0001207047012002E0012000E0002002B0F3
:10134C0070BD0120FBE70120F9E70120F7E700BFA2
:10135C0000100240000042420F4B5B6803F00C028D
:10136C00082A01D00D487047C3F383420C49885CAE
:10137C0013F4803F0BD0084B5B68C3F34043094A1E
:10138C00D35C064A02FB00F0B0FBF3F07047064B4F
:10139C0003FB00F0704700BF0010024000127A00FF
:1013AC00481D0008441D000800093D00002800F0FD
:1013BC00A08070B50D460446524B1B6803F0070322
:1013CC008B420BD24F4A136823F007030B43136075
:1013DC00136803F007038B4240F08D80236813F0F1
:1013EC00020F17D013F0040F04D0474A536843F48C
:1013FC00E0635360236813F0080F04D0424A53682B
:10140C0043F460535360404A536823F0F003A168DF
:10141C000B435360236813F0010F31D06368012B29
:10142C0020D0022B25D0384A126812F0020F64D05B
:10143C0035494A6822F0030213434B60FFF788FAE0
:10144C000646314B5B6803F00C036268B3EB820F0A
:10145C0016D0FFF77DFA801B41F288339842F0D901
:10146C00032045E0284A126812F4003FE0D1012025
:10147C003EE0254A126812F0007FD9D1012037E0F6
:10148C00204B1B6803F00703AB420AD91D4A1368B3
:10149C0023F007032B431360136803F00703AB42DD
:1014AC002DD1236813F0040F06D0174A536823F488
:1014BC00E063E1680B435360236813F0080F07D017
:1014CC00114A536823F46053216943EAC103536002
:1014DC00FFF742FF0C4B5B68C3F303130B4AD35C5F
:1014EC00D8400B4B18600B4B1868FFF7EDF9002038
:1014FC0070BD012070470120FAE70120F8E70120B8
:10150C00F6E700BF0020024000100240341D000826
:10151C000000002008000020014B1868704700BF35
:10152C000000002008B5FFF7F7FF044B5B68C3F31E
:10153C000223034AD35CD84008BD00BF0010024010
:10154C002C1D000808B5FFF7E7FF044B5B68C3F3DD
:10155C00C223034AD35CD84008BD00BF0010024030
:10156C002C1D0008026802F10C0353E8003F23F421
:10157C0090730C3242E800310029F3D1026802F179
:10158C00140353E8003F23F00103143242E8003106
:10159C000029F3D1036B012B05D0202380F84230B6
:1015AC00002303637047026802F10C0353E8003F09
:1015BC0023F010030C3242E800310029F3D1ECE7A0
:1015CC0090F84130212B01D0022070478368B3F58D
:1015DC00805F17D0036A5A1C02621A7803685A603B
:1015EC00C38C9BB2013B9BB2C3844BB90268D368DA
:1015FC0023F08003D3600268D36843F04003D360C8
:10160C00002070470369002BE4D1036A1B88026831
:10161C00C3F308035360036A02330362E0E700007C
:10162C0010B504460268136923F44053C1680B4398
:10163C00136183680269134342691A430168CB68DA
:10164C0023F4B05323F00C031343CB6002685369AB
:10165C0023F4407381690B4353610268134B9A4224
:10166C0020D0FFF75FFF024602EB820202EB820200
:10167C0063689B00B2FBF3F20D48A0FB02314909F1
:10168C00642303FB11231B013233A0FB03035B090F
:10169C0003F0F00202EB011203F00F032168134474
:1016AC008B6010BDFFF74EFF0246DDE700380140AE
:1016BC001F85EB5160B310B5044690F8413013B35D
:1016CC00242384F841302268D36823F40053D36078
:1016DC002046FFF7A5FF2268136923F4904313619A
:1016EC002268536923F02A0353612268D36843F4B8
:1016FC000053D36000206064202384F8413084F8C8
:10170C004230606310BD80F84030FEF7B3FFD7E77E
:10171C0001207047704708B50168CA6822F0400282
:10172C00CA60202280F84120FFF7F4FF002008BD9A
:10173C007047704708B5406A0023C385C384FFF720
:10174C00F8FF08BD704790F84230222B69D18368AE
:10175C00B3F5805F4FD0826AB3F5805F04D0002B65
:10176C0056D10369002B53D103685B681370836AED
:10177C0001338362C38D9BB2013B9BB2C385002BAB
:10178C0051D100B583B00268D36823F02003D36035
:10179C000268D36823F48073D3600268536923F022
:1017AC0001035361202380F8423000234363036B11
:1017BC00012B33D100230363026802F10C0353E8BD
:1017CC00003F23F010030C3242E800310029F3D122
:1017DC0003681A6812F0100F06D0002201921A68E2
:1017EC0001925B680193019B818DFFF7ABFF002099
:1017FC0003B05DF804FB0269002AACD1826A03686D
:10180C005B68C3F308031380836A02338362B1E716
:10181C0003685B6803F07F031370A8E7FFF788FF8A
:10182C00E5E70220704700207047000010B582B039
:10183C00044602681368D068516913F00F0F09D180
:10184C0013F0200F0CD010F0200F09D02046FFF71A
:10185C007AFF16E011F0010115D110F4907F12D12E
:10186C00216B012979D013F0800F03D010F0800F79
:10187C0040F0138113F0400F03D010F0400F40F0F4
:10188C00108102B010BD13F0010F06D010F4807F50
:10189C0003D0626C42F00102626413F0040F04D0B6
:1018AC0019B1626C42F00202626413F0020F04D0B0
:1018BC0019B1626C42F00402626413F0080F07D095
:1018CC0010F0200F00D119B1626C42F00802626472
:1018DC00626C002AD5D013F0200F02D010F0200F2C
:1018EC0029D123685B6903F04003626C12F0080F86
:1018FC0000D163B32046FFF735FE23685B6913F014
:10190C00400F20D0226802F1140353E8003F23F06B
:10191C004003143242E800310029F3D1E36B73B178
:10192C00624A5A63E06BFFF7FBF80028A9D0E06B22
:10193C00436B9847A5E72046FFF705FFD1E7204604
:10194C00FFF7F7FE9DE72046FFF7F3FE99E72046E9
:10195C00FFF7EFFE0023636493E713F0100F82D0C0
:10196C0010F0100F3FF47FAF002301931368019325
:10197C0053680193019B536913F0400F51D0E26BF4
:10198C0013685B689BB2002B3FF47BAFA18D99422F
:10199C007FF677AFE3859369202B37D0226802F16D
:1019AC000C0353E8003F23F480730C3242E80031FF
:1019BC000029F3D1226802F1140353E8003F23F00D
:1019CC000103143242E800310029F3D1226802F1FC
:1019DC00140353E8003F23F04003143242E8003173
:1019EC000029F3D1202384F842300023236322689A
:1019FC0002F10C0353E8003F23F010030C3242E8D1
:101A0C0000310029F3D1E06BFFF768F80223636320
:101A1C00A18DE38D9BB2C91A89B22046FFF792FEC5
:101A2C002FE7A18DE38D9BB2C91A89B2E38D9BB2CE
:101A3C00002B3FF426AF00293FF423AF226802F1BC
:101A4C000C0353E8003F23F490730C3242E800304F
:101A5C000028F3D1226802F1140353E8003F23F06D
:101A6C000103143242E800300028F3D1202384F81B
:101A7C00423000232363226802F10C0353E8003F39
:101A8C0023F010030C3242E800300028F3D102237B
:101A9C0063632046FFF756FEF3E62046FFF790FD02
:101AAC00EFE62046FFF737FEEBE600BF41170008D4
:101ABC0003460244934200D1704703F8011BF9E737
:101ACC0070B500260C4D0D4B5B1B9C10A64209D12A
:101ADC00002600F019F80A4D0A4B5B1B9C10A6421D
:101AEC0005D170BD55F8043B98470136EEE755F823
:101AFC00043B98470136F2E7581D0008581D0008B2
:101B0C00581D00085C1D0008F8B500BFF8BC08BCE7
:101B1C009E467047F8B500BFF8BC08BC9E4670479F
:101B2C0000C0C101C30302C2C60607C705C5C40471
:101B3C00CC0C0DCD0FCFCE0E0ACACB0BC90908C8E1
:101B4C00D81819D91BDBDA1A1EDEDF1FDD1D1CDCD1
:101B5C0014D4D515D71716D6D21213D311D1D01041
:101B6C00F03031F133F3F23236F6F737F53534F431
:101B7C003CFCFD3DFF3F3EFEFA3A3BFB39F9F838A1
:101B8C0028E8E929EB2B2AEAEE2E2FEF2DEDEC2C91
:101B9C00E42425E527E7E62622E2E323E12120E001
:101BAC00A06061A163A3A26266A6A767A56564A4F1
:101BBC006CACAD6DAF6F6EAEAA6A6BAB69A9A86861
:101BCC0078B8B979BB7B7ABABE7E7FBF7DBDBC7C51
:101BDC00B47475B577B7B67672B2B373B17170B0C1
:101BEC0050909151935352929656579755959454B1
:101BFC009C5C5D9D5F9F9E5E5A9A9B5B9959589821
:101C0C00884849894B8B8A4A4E8E8F4F8D4D4C8C10
:101C1C004484854587474686824243834181804080
:101C2C0000C1814001C0804101C0804100C18140A0
:101C3C0001C0804100C1814000C1814001C0804190
:101C4C0001C0804100C1814000C1814001C0804180
:101C5C0000C1814001C0804101C0804100C1814070
:101C6C0001C0804100C1814000C1814001C0804160
:101C7C0000C1814001C0804101C0804100C1814050
:101C8C0000C1814001C0804101C0804100C1814040
:101C9C0001C0804100C1814000C1814001C0804130
:101CAC0001C0804100C1814000C1814001C0804120
:101CBC0000C1814001C0804101C0804100C1814010
:101CCC0000C1814001C0804101C0804100C1814000
:101CDC0001C0804100C1814000C1814001C08041F0
:101CEC0000C1814001C0804101C0804100C18140E0
:101CFC0001C0804100C1814000C1814001C08041D0
:101D0C0001C0804100C1814000C1814001C08041BF
:101D1C0000C1814001C0804101C0804100C18140AF
:101D2C00000000000102030400000000000000009D
:101D3C00010203040607080901020000020304055E
:0C1D4C00060708090A0B0C0D0E0F101002
:041D58007501000809
:041D5C004D0100082D
:0C1D600000127A000100000010000000DA
:04000005080008895E
:00000001FF
