:020000040800F2
:100000000050002069110008890D00088B0D0008C0
:100010008D0D00088F0D0008910D000800000000F4
:10002000000000000000000000000000930D000828
:10003000950D000800000000970D0008990D0008BC
:10004000B1110008B1110008B1110008B111000888
:10005000B1110008B1110008B1110008B111000878
:10006000B1110008B1110008B1110008B111000868
:10007000B1110008A10D0008B1110008B10D000870
:10008000C10D0008B1110008B1110008B11100083C
:10009000B1110008B1110008B1110008B111000838
:1000A000B1110008D10D0008B1110008B11100080C
:1000B000B1110008B1110008B1110008B111000818
:1000C000B1110008B1110008B1110008B111000808
:1000D000B1110008E10D0008F10D0008010E000843
:1000E000B1110008B1110008B111000800000000B2
:1000F0000000000000000000000000000000000000
:0C01000000000000000000005FF808F1A3
:10010C004FF0FF0C1CEAD0521EBF1CEAD15392EAEE
:10011C000C0F93EA0C0F6FD01A4480EA010C4002CA
:10012C0018BF5FEA41211ED04FF0006343EA501024
:10013C0043EA5111A0FB01310CF00040B1F5000F66
:10014C003EBF490041EAD3715B0040EA010062F115
:10015C007F02FD2A1DD8B3F1004F40EBC25008BFFF
:10016C0020F00100704790F0000F0CF0004C08BF1D
:10017C0049024CEA502040EA51207F3AC2BFD2F1EA
:10018C00FF0340EAC250704740F400004FF00003F8
:10019C00013A5DDC12F1190FDCBF00F00040704732
:1001AC00C2F10002410021FA02F1C2F1200200FA70
:1001BC0002FC5FEA310040F1000053EA4C0308BF37
:1001CC0020EADC70704792F0000F00F0004C02BF88
:1001DC00400010F4000F013AF9D040EA0C0093F003
:1001EC00000F01F0004C02BF490011F4000F013B5D
:1001FC00F9D041EA0C018FE70CEAD15392EA0C0FCB
:10020C0018BF93EA0C0F0AD030F0004C18BF31F035
:10021C00004CD8D180EA010000F00040704790F00B
:10022C00000F17BF90F0004F084691F0000F91F0AF
:10023C00004F14D092EA0C0F01D142020FD193EA75
:10024C000C0F03D14B0218BF084608D180EA0100FD
:10025C0000F0004040F0FE4040F40000704740F0D9
:10026C00FE4040F44000704780F0004002E000BFC8
:10027C0081F0004142001FBF5FEA410392EA030F85
:10028C007FEA226C7FEA236C6AD04FEA1262D2EBCF
:10029C001363C1BFD218414048404140B8BF5B42D4
:1002AC00192B88BF704710F0004F40F4000020F06D
:1002BC007F4018BF404211F0004F41F4000121F083
:1002CC007F4118BF494292EA030F3FD0A2F10102CD
:1002DC0041FA03FC10EB0C00C3F1200301FA03F10B
:1002EC0000F0004302D5494260EB4000B0F5000F2E
:1002FC0013D3B0F1807F06D340084FEA310102F1ED
:10030C000102FE2A51D2B1F1004F40EBC25008BF9E
:10031C0020F0010040EA03007047490040EB000068
:10032C00013A28BFB0F5000FEDD2B0FA80FCACF169
:10033C00080CB2EB0C0200FA0CF0AABF00EBC25096
:10034C0052421843BCBFD0401843704792F0000F84
:10035C0081F4000106BF80F400000132013BB5E7D7
:10036C004FEA41037FEA226C18BF7FEA236C21D04D
:10037C0092EA030F04D092F0000F08BF08467047B2
:10038C0090EA010F1CBF0020704712F07F4F04D180
:10039C00400028BF40F00040704712F100723CBF93
:1003AC0000F50000704700F0004343F0FE4040F4BD
:1003BC00000070477FEA226216BF08467FEA23637B
:1003CC000146420206BF5FEA412390EA010F40F466
:1003DC00800070474FF0000304E000BF10F00043B2
:1003EC0048BF40425FEA000C08BF704743F0964399
:1003FC0001464FF000001CE050EA010208BF7047B4
:10040C004FF000030AE000BF50EA010208BF70473A
:10041C0011F0004302D5404261EB41015FEA010C4F
:10042C0002BF84460146002043F0B64308BFA3F147
:10043C008053A3F50003BCFA8CF2083AA3EBC25329
:10044C0010DB01FA02FC634400FA02FCC2F1200248
:10045C00BCF1004F20FA02F243EB020008BF20F07F
:10046C000100704702F1200201FA02FCC2F12002E5
:10047C0050EA4C0021FA02F243EB020008BF20EADA
:10048C00DC7070474FF0FF3C06E000BF4FF0010CF2
:10049C0002E000BF4FF0010C4DF804CD4FEA4002D2
:1004AC004FEA41037FEA226C18BF7FEA236C11D01C
:1004BC0001B052EA530C18BF90EA010F58BFB2EBCF
:1004CC00030088BFC81738BF6FEAE17018BF40F04F
:1004DC00010070477FEA226C02D15FEA402C05D103
:1004EC007FEA236CE4D15FEA412CE1D05DF8040B88
:1004FC00704700BF844608466146FFE70FB5FFF71B
:10050C00C9FF002848BF10F1000F0FBD4DF808EDD2
:10051C00FFF7F4FF0CBF012000205DF808FB00BFC3
:10052C004DF808EDFFF7EAFF34BF012000205DF81D
:10053C0008FB00BF4DF808EDFFF7E0FF94BF01206A
:10054C0000205DF808FB00BF4DF808EDFFF7D2FF67
:10055C0094BF012000205DF808FB00BF4DF808EDAA
:10056C00FFF7C8FF34BF012000205DF808FB00BF77
:10057C004FEA4002B2F1FE4F0FD34FF09E03B3EBA4
:10058C0012620DD94FEA002343F0004310F0004FE4
:10059C0023FA02F018BF404270474FF0000070473A
:1005AC0012F1610F01D1420205D110F0004008BFD9
:1005BC006FF0004070474FF0000070470348044B49
:1005CC00834202D0034B03B1184770470C00002044
:1005DC000C000020000000000548064B1B1AD90F28
:1005EC0001EBA301491002D0034B03B1184770472C
:1005FC000C0000200C0000200000000010B5064C80
:10060C00237843B9FFF7DAFF044B13B10448AFF377
:10061C0000800123237010BD0C000020000000009E
:10062C002C2B000808B5054B1BB105490548AFF349
:10063C000080BDE80840FFF7CFBF00BF00000000FE
:10064C00100000202C2B0008F8B504460D46C160A4
:10065C004069FFF70FFE06466061A7693946FFF750
:10066C007DFF00282DD0676129462068FFF748FDE3
:10067C00064661696068FFF743FD01463046FFF7A7
:10068C00F9FD0646A76821692846FFF7F1FD0146EA
:10069C003846FFF735FD01463046FFF7EBFD0646C1
:1006AC002561E46901462046FFF73AFF38B904F1A9
:1006BC00004004463146FFF751FF00B9344620464E
:1006CC00F8BD07F1004739463046FFF729FF0028EF
:1006DC00CAD06761C8E7000008B50B4BDFF82CC027
:1006EC00C3F800C00020586009499960094A9A6112
:1006FC00DA61094BC3F800C0586099609A61DA61FD
:10070C0000F066F908BD00BF500000200AD7A33CDA
:10071C00CDCC4C3D0000A04030000020404B5B791C
:10072C00012B00D0704770B53D4B00225A711B79DC
:10073C00012B64D13A4BB3F90000B3F90240831C8E
:10074C009BB2042B00D81046A31C9BB2042B00D8E0
:10075C000024FFF743FE01463248FFF775FF0546BC
:10076C002046FFF73BFE01462F48FFF76DFF04467E
:10077C002E4E31682846FFF77DFD054630602C4E25
:10078C0031682046FFF776FD04463060294928463B
:10079C00FFF7E4FE10B1254B264A1A602649234B7D
:1007AC001868FFF7BDFE10B1204B234A1A6023498D
:1007BC002046FFF7D3FE10B11D4B204A1A6020498A
:1007CC001B4B1868FFF7ACFE10B1194B1C4A1A6092
:1007DC001C49164B1868FFF793FCFFF7C9FE05463A
:1007EC001849134B1868FFF78BFCFFF7C1FE044642
:1007FC00284600F066F8204600F0B7F870BD0023DC
:10080C00084A5361084A5361084A1360084A136046
:10081C00002000F056F8002000F0A7F8EEE700BF2B
:10082C008800002050000020300000202C00002008
:10083C002800002000003442000034C20000F041C7
:10084C000000F0C10000C84200B5FF2296460AE045
:10085C0010F8013B5340084AD25C82EA0E02074969
:10086C0011F803E061464B1E1FFA83FC0029EFD1FF
:10087C0042EA0E205DF804FB442C0008442B0008CF
:10088C0010B582B001238DF8003006218DF80110CF
:10089C0000228DF80220A2208DF803008DF8042090
:1008AC008DF805306846FFF7CFFF8DF80600C0F3D2
:1008BC0007208DF807000821684600F0A3F802B065
:1008CC0010BD10B584B001238DF8003010238DF8C5
:1008DC00013000238DF8023023228DF803208DF88F
:1008EC00043002238DF8053004238DF80630030EF6
:1008FC008DF80730C0F307438DF80830C0F3072399
:10090C008DF809308DF80A000B216846FFF79CFF23
:10091C008DF80B00C0F307208DF80C000D216846F4
:10092C0000F070F804B010BD10B582B001238DF842
:10093C00003006218DF8011000228DF80220A22033
:10094C008DF803008DF804208DF805306846FFF70C
:10095C007BFF8DF80600C0F307208DF807000821F7
:10096C00684600F067F802B010BD10B584B00123E2
:10097C008DF8003010238DF8013000238DF80230F3
:10098C0023228DF803208DF8043002238DF80530D6
:10099C0004238DF80630030E8DF80730C0F307439F
:1009AC008DF80830C0F307238DF809308DF80A0054
:1009BC000B216846FFF748FF8DF80B00C0F30720AA
:1009CC008DF80C000D21684600F034F804B010BD11
:1009DC0008B5FFF755FFFFF7A7FFC82000F02EFC66
:1009EC000020FFF76EFF0020FFF7BFFF08BD0000DF
:1009FC00034B1B681A6812F0800FF9D058607047CF
:100A0C00EC01002070B506460D46002404E0305D74
:100A1C00FFF7EEFF0134A4B2AC42F8D370BD000076
:100A2C00034B1B681A6812F0800FF9D0586070479E
:100A3C00A401002070B506460D46002404E0305D8C
:100A4C00FFF7EEFF0134A4B2AC42F8D370BD0378CB
:100A5C00AA2B13D14378052B12D1037A552B11D124
:100A6C0000231A4603E0C15C0A44D2B20133062BC0
:100A7C00F9DDC379934207D10120704700207047FC
:100A8C0000207047002070470020704700487047D6
:100A9C007C00002008B5094900230B604B600B72E9
:100AAC000922074801F0FEFF18B9064B01221A7003
:100ABC0008BD044B03221A70FAE700BF7C0000202B
:100ACC00340200208500002008B5034801F004FD25
:100ADC00FFF7E0FF08BD00BF3402002010B504464C
:100AEC00FFF7B5FFD8B1104B1A462068616803C2F6
:100AFC00217A11709A78D97841EA02210B4A118037
:100B0C001879597941EA002151809B79137101239D
:100B1C005371074A1370074B02221A7010BD054B14
:100B2C0003221A70FAE700BF700000208800002032
:100B3C00860000208500002008B50268054B9A420B
:100B4C0000D008BDFFF7A2FFFFF7C8FFFFF7BCFFFF
:100B5C00F7E700BF0038014000B583B0124B5A696B
:100B6C0042F001025A615B6903F001030193019B9E
:100B7C00002211460D2000F0BBFB0D2000F0C8FB3D
:100B8C00002211460F2000F0B3FB0F2000F0C0FB39
:100B9C0000221146102000F0ABFB102000F0B8FB37
:100BAC0003B05DF804FB00BF001002402DE9F047D4
:100BBC0088B004AD00240494059406940794314B3A
:100BCC009A6942F010029A619A6902F0100201923D
:100BDC00019A9A6942F004029A619A6902F004023D
:100BEC000292029A9A6942F008029A619B6903F098
:100BFC0008030393039BDFF890A022464FF40051A7
:100C0C00504600F045FE214E22464FF4005130462E
:100C1C0000F03EFE4FF40059CDF8109001270597D7
:100C2C0006944FF00208CDF81C802946504600F07F
:100C3C0025FDCDF81090112305930697CDF81C8057
:100C4C002946304600F01AFD4FF480430493059476
:100C5C0006942946304600F011FD4FF400430493EE
:100C6C00059406972946304600F008FD4FF4807332
:100C7C000493059406942946054800F0FFFC08B03F
:100C8C00BDE8F0870010024000100140000C01404C
:100C9C000008014008B50268034B9A4200D008BD19
:100CAC00FFF73CFDFBE700BF002C014072B6FEE7EE
:100CBC0010B590B006AC28220021204601F004FFAC
:100CCC000023019302930393049305930223069349
:100CDC0001220A9210220B920D934FF460130F9382
:100CEC00204600F0F1FD78B90F2301930221029107
:100CFC00002303934FF480620492059301A801F042
:100D0C0015F818B910B010BDFFF7D0FFFFF7CEFFE4
:100D1C0008B500F06FFAFFF7CBFFFFF747FFFFF7BF
:100D2C001BFF00F0C9F800F0E1F800F0F9F800F052
:100D3C006BF8FFF7D1FCFEE782B00E4B9A6942F0DC
:100D4C0001029A619A6902F001020092009ADA6932
:100D5C0042F08052DA61DB6903F080530193019B0E
:100D6C00054A536823F0E06343F00073536002B00C
:100D7C00704700BF0010024000000140FEE7FEE794
:100D8C00FEE7FEE7FEE770477047704708B500F0D6
:100D9C0043FA08BD08B5024800F0CEFB08BD00BF01
:100DAC00D800002008B5024800F0C6FB08BD00BF03
:100DBC006001002008B5024800F0BEFB08BD00BF72
:100DCC001C01002008B5024801F0BDF808BD00BFA9
:100DDC009000002008B5024801F074FC08BD00BF6B
:100DEC003402002008B5024801F06CFC08BD00BFBD
:100DFC00EC01002008B5024801F064FC08BD00BFFE
:100E0C00A40100207047000000B587B000230293B6
:100E1C00039304930593009301931548154A0260BC
:100E2C003F224260836042F20F72C26003614361F1
:100E3C00836101F079F990B94FF48053029302A9C0
:100E4C000B4801F0A9F968B9002300930193694696
:100E5C00074801F021FA40B907B05DF804FBFFF731
:100E6C0025FFE9E7FFF722FFEEE7FFF71FFFF3E7A8
:100E7C0090000020002C014002680E4B9A4200D0DA
:100E8C00704700B583B003F564439A6942F400627D
:100E9C009A619B6903F400630193019B0022114644
:100EAC00192000F025FA192000F032FA03B05DF891
:100EBC0004FB00BF002C014008B50A480A4B036034
:100ECC004FF4E133436000238360C36003610C2261
:100EDC0042618361C36101F0CFFA00B908BDFFF72D
:100EEC00E5FEFBE7340200200038014008B50A4853
:100EFC000A4B03604FF4E133436000238360C3600B
:100F0C0003610C2242618361C36101F0B5FA00B93F
:100F1C0008BDFFF7CBFEFBE7EC01002000440040CE
:100F2C0008B50A480A4B03604FF4E13343600023D1
:100F3C008360C36003610C2242618361C36101F071
:100F4C009BFA00B908BDFFF7B1FEFBE7A401002036
:100F5C0000480040F0B58BB004460023069307937D
:100F6C00089309930368714A934208D0704A9342DC
:100F7C004DD0704A934200F090800BB0F0BD6E4B98
:100F8C009A6942F480429A619A6902F48042009212
:100F9C00009A9A6942F004029A619B6903F0040377
:100FAC000193019B4FF400730693022307930323D1
:100FBC00099306AF614E3946304600F05FFB4FF4A3
:100FCC00806306930025079508953946304600F056
:100FDC0055FB5B485B4B0360456085608023C360B9
:100FEC000561456120238361C56100F0C9F958B9D9
:100FFC00534BE3635C6200221146252000F078F924
:10100C00252000F085F9B8E7FFF750FEF0E74A4BD2
:10101C00DA6942F40032DA61DA6902F400320292DF
:10102C00029A9A6942F004029A619B6903F00403E4
:10103C000393039B0423069302230793032309932F
:10104C0006AF3E4E3946304600F018FB0823069397
:10105C000025079508953946304600F00FFB3A48B5
:10106C003A4B0360456085608023C3600561456130
:10107C0020238361C56100F083F958B9324BE363D7
:10108C005C6200221146262000F032F9262000F086
:10109C003FF972E7FFF70AFEF0E7274BDA6942F4F3
:1010AC008022DA61DA6902F480220492049A9A6945
:1010BC0042F008029A619B6903F008030593059BB3
:1010CC004FF480630693022307930323099306AF1F
:1010DC001F4E3946304600F0D1FA4FF400630693A8
:1010EC000025079508953946304600F0C7FA19488F
:1010FC00194B0360456085608023C36005614561C1
:10110C0020238361C56100F03BF958B9114BE363AF
:10111C005C6200221146272000F0EAF8272000F03C
:10112C00F7F82AE7FFF7C2FDF0E700BF00380140EF
:10113C0000440040004800400010024000080140FC
:10114C0060010020580002401C0100206C0002408D
:10115C00000C0140D800002030000240FFF752FE86
:10116C000B480C490C4A002302E0D458C4500433F9
:10117C00C4188C42F9D3094A094C002301E01360CE
:10118C000432A242FBD301F0A7FCFFF7C1FD70476C
:10119C00000000200C000020782D00080C0000201E
:1011AC0080020020FEE7000010B504460E4B1A78B2
:1011BC004FF47A73B3FBF2F30C4A1068B0FBF3F004
:1011CC0000F0B4F868B90F2C01D901200AE0002214
:1011DC0021464FF0FF3000F08BF8054B1C600020CF
:1011EC0000E0012010BD00BF040000200000002022
:1011FC000800002008B5074A136843F01003136079
:10120C00032000F063F80F20FFF7CEFFFFF794FDEB
:10121C00002008BD00200240034A1168034B1B78D4
:10122C000B441360704700BF7C02002004000020B8
:10123C00014B1868704700BF7C02002038B504468B
:10124C00FFF7F6FF0546B4F1FF3F02D0044B1B78C5
:10125C001C44FFF7EDFF401BA042FAD338BD00BF82
:10126C0004000020002808DB0901C9B200F160402D
:10127C0000F5614080F80013704700F00F00090181
:10128C00C9B2014B1954704714ED00E000B500F0E1
:10129C000700C0F1070CBCF1040F28BF4FF0040C81
:1012AC00031D062B0FD9C31E4FF0FF3E0EFA0CF098
:1012BC0021EA000199400EFA03FE22EA0E0241EAED
:1012CC0002005DF804FB0023EEE70000074AD36838
:1012DC0023F4E0631B041B0C000200F4E0600343E6
:1012EC0043F0BF6343F40033D360704700ED00E07C
:1012FC0010B50446054BD868C0F30220FFF7C6FFB3
:10130C0001462046FFF7AEFF10BD00BF00ED00E028
:10131C00002807DB00F01F02400901239340024A1A
:10132C0042F82030704700BF00E100E00138B0F116
:10133C00807F0BD24FF0E0235861054AF02182F8F0
:10134C0023100020986107221A6170470120704712
:10135C0000ED00E030B40124056CAC40C56B6C6052
:10136C00046863604368102B05D0036899600368B8
:10137C00DA6030BC704703689A600368D960F8E79C
:10138C0050B310B402460168144B0B441448A0FB34
:10139C0003031B099B001364124BD363022382F8D3
:1013AC00213008686FF30D10536894682343D46898
:1013BC002343146923435469234394692343D46915
:1013CC00234303430B6000209063012382F82130F8
:1013DC0082F8200010BC704701207047F8FFFDBF59
:1013EC00CDCCCCCC0000024038B5044690F820009F
:1013FC00012831D0012084F8200094F82100012824
:10140C0004D0002384F82030022038BD022084F858
:10141C0021000020A0632568286820F001002860C6
:10142C002046FFF797FFE36A5BB12268136843F02D
:10143C000E0313602268136843F00103136000204D
:10144C00E3E72268136823F004031360226813682F
:10145C0043F00A031360EDE70220D6E7034690F849
:10146C002120022A06D004228263002280F8202048
:10147C000120704701680A6822F00E020A600168B8
:10148C000A6822F001020A60026CC06B012101FAA9
:10149C0002F2426083F82110002083F8200070478C
:1014AC0008B590F82130022B03D00423836301206C
:1014BC0008BD0268136823F00E03136002681368FA
:1014CC0023F0010313600368194A934214D01432B9
:1014DC0093421FD0143293421ED0143293421ED02A
:1014EC00143293421ED01432934202D04FF08072C9
:1014FC0003E04FF4801200E001220E4B5A600123EE
:10150C0080F82130002380F82030436B6BB1984772
:10151C000020CDE71022F0E74FF48072EDE74FF496
:10152C008052EAE74FF48032E7E70020C0E700BFC3
:10153C00080002400000024038B5C36B1A6804680A
:10154C002568016C04238B40134235D015F0040F31
:10155C0032D0236813F0200F03D1236823F0040347
:10156C0023600368434A934214D01432934218D038
:10157C001432934217D01432934217D01432934240
:10158C0017D01432934202D04FF0806203E04FF434
:10159C00800200E00422384B5A60C36A03B19847BA
:1015AC0038BD4022F7E74FF48062F4E74FF48042F5
:1015BC00F1E74FF48022EEE702238B4013423CD03C
:1015CC0015F0020F39D0236813F0200F06D12368D1
:1015DC0023F00A032360012380F821300368254A95
:1015EC00934214D0143293421CD0143293421BD029
:1015FC00143293421BD0143293421BD014329342B8
:10160C0002D04FF0007203E04FF4001200E002220F
:10161C00194B5A60002380F82030836A002BBFD00E
:10162C009847BDE72022F3E74FF40072F0E74FF440
:10163C000052EDE74FF40032EAE708238B401342E7
:10164C00AED015F0080FABD0236823F00E03236047
:10165C00026CC16B012303FA02F24A60836380F8C7
:10166C002130002380F82030036B002B98D0984752
:10167C0096E700BF080002400000024070B582B03F
:10168C000024A4469EE07C4DAB4214D00CD8A5F5AA
:10169C008015AB420FD005F57025AB420BD0A5F5EC
:1016AC008015AB421FD106E0744DAB4203D005F55B
:1016BC008035AB4217D18B68A3B1012B0DD04261A1
:1016CC00082410E0CC680EE0CC6804340BE0CC6845
:1016DC00083408E0CC680C3405E00261082402E010
:1016EC00002400E00424BEF1FF0F37D806464FEA71
:1016FC008C0233680F25954023EA050304FA02F2A5
:10170C00134333604B6813F0805F59D05C4B9A697C
:10171C0042F001029A619B6903F001030193019B62
:10172C004FEA9C02951C574B53F825600CF00305AF
:10173C00AD000F23AB4026EA0306534B984214D05E
:10174C0003F58063984279D003F58063984277D093
:10175C0003F58063984206D0042307E0061DACF124
:10176C0008029200C5E7032300E00023AB4033439B
:10177C000232444D45F822304B6813F4801F61D07F
:10178C00424A936843EA0E0393604B6813F4001FBC
:10179C005ED03E4AD36843EA0E03D3604B6813F421
:1017AC00003F5BD0394A536843EA0E0353604B68E1
:1017BC0013F4803F58D0354A136843EA0E03136084
:1017CC000CF1010C0B6833FA0CF253D0012202FA23
:1017DC000CF203EA020E32EA0303F1D14B68122B2E
:1017EC003FF651AF122B3FF67EAF01A555F823F013
:1017FC00C3160008D1160008DB160008ED16000809
:10180C00F3160008F3160008F3160008F316000888
:10181C00F3160008F3160008F3160008F316000878
:10182C00F3160008F3160008F3160008F316000868
:10183C00F3160008D5160008E1160008012395E7F9
:10184C00022393E7114A936823EA0E0393609CE703
:10185C000E4AD36823EA0E03D3609FE70B4A536802
:10186C0023EA0E035360A2E7084A136823EA0E0327
:10187C001360A5E702B070BD00002210000031100B
:10188C00001002400000014000080140000401402B
:10189C000AB10161704709040161704782B0084BBD
:1018AC001B68084AA2FB03235B0A00FB03F30193AA
:1018BC0000BF019B5A1E0192002BF9D102B0704758
:1018CC0000000020D34D6210002800F0F18170B5AB
:1018DC0082B00446036813F0010F2CD0994B5B685F
:1018EC0003F00C03042B1DD0964B5B6803F00C0328
:1018FC00082B12D06368B3F5803F41D0002B55D133
:10190C0003F1804303F504331A6822F480321A6021
:10191C001A6822F480221A6037E08A4B5B6813F451
:10192C00803FE7D0874B1B6813F4003F03D06368FC
:10193C00002B00F0BF81236813F0020F75D0814B90
:10194C005B6813F00C0F5FD07E4B5B6803F00C03ED
:10195C00082B54D02369002B00F08A807A4B01228B
:10196C001A60FFF765FC0546764B1B6813F0020FF7
:10197C0075D1FFF75DFC401B0228F5D903209EE1D1
:10198C00704A136843F480331360636843B3FFF702
:10199C004FFC05466B4B1B6813F4003FCBD1FFF794
:1019AC0047FC401B6428F5D9032088E1B3F5A02F30
:1019BC0009D0644B1A6822F480321A601A6822F437
:1019CC0080221A60E1E703F18043A3F53C331A68E7
:1019DC0042F480221A601A6842F480321A60D4E70A
:1019EC00FFF726FC0546574B1B6813F4003FA2D0AB
:1019FC00FFF71EFC401B6428F5D903205FE1514B17
:101A0C005B6813F4803FA5D14E4B1B6813F0020F9B
:101A1C0003D02369012B40F04F814A4A136823F00D
:101A2C00F803616943EAC1031360236813F0080FDC
:101A3C0033D0A369002B5CD0434B0122C3F8802424
:101A4C00FFF7F6FB05463F4B5B6A13F0020F21D103
:101A5C00FFF7EEFB401B0228F5D903202FE1394A92
:101A6C00136823F0F803616943EAC1031360DCE7F0
:101A7C00354B00221A60FFF7DBFB0546314B1B6828
:101A8C0013F0020FD1D0FFF7D3FB401B0228F5D97E
:101A9C00032014E10120FFF701FF236813F0040F6A
:101AAC0000F09680274BDB6913F0805F34D1254B17
:101ABC00DA6942F08052DA61DB6903F080530193FA
:101ACC00019B0125214B1B6813F4807F26D0E36812
:101ADC00012B3DD0002B53D103F1804303F504338C
:101AEC001A6A22F001021A621A6A22F004021A62BD
:101AFC0033E0154B0022C3F88024FFF799FB054611
:101B0C00104B5B6A13F0020FC7D0FFF791FB401B21
:101B1C000228F5D90320D2E00025D3E70B4A13683D
:101B2C0043F480731360FFF783FB0646074B1B6877
:101B3C0013F4807FCBD1FFF77BFB801B6428F5D996
:101B4C000320BCE000100240000042420070004044
:101B5C005F4A136A43F001031362E36833B3FFF780
:101B6C0067FB06465A4B1B6A13F0020F2FD1FFF787
:101B7C005FFB801B41F288339842F3D903209EE02F
:101B8C00052B09D0524B1A6A22F001021A621A6A0A
:101B9C0022F004021A62E0E74D4B1A6A42F004028A
:101BAC001A621A6A42F001021A62D6E7FFF740FB8A
:101BBC000646474B1B6A13F0020F08D0FFF738FBA1
:101BCC00801B41F288339842F3D9032077E0E5B9C2
:101BDC00E369002B72D03E4A526802F00C02082ACC
:101BEC0056D0022B17D03B4B00221A66FFF720FB76
:101BFC000446374B1B6813F0007F47D0FFF718FBE8
:101C0C00001B0228F5D9032059E0314AD36923F08F
:101C1C008053D361DCE72F4B00221A66FFF708FBD9
:101C2C0005462B4B1B6813F0007F06D0FFF700FB1B
:101C3C00401B0228F5D9032041E0236AB3F5803F0D
:101C4C001AD023494B6823F47413226A606A024346
:101C5C0013434B601F4B01221A66FFF7E9FA044647
:101C6C001B4B1B6813F0007F0ED1FFF7E1FA001B32
:101C7C000228F5D9032022E0154A536823F40033D7
:101C8C00A1680B435360DCE7002018E0002016E04D
:101C9C00012B16D00E4B5B6803F48031226A914203
:101CAC0011D103F47013626A93420ED1002006E046
:101CBC0001207047012002E0012000E0002002B06A
:101CCC0070BD0120FBE70120F9E70120F7E700BF19
:101CDC0000100240000042420F4B5B6803F00C0204
:101CEC00082A01D00D487047C3F383420C49885C25
:101CFC0013F4803F0BD0084B5B68C3F34043094A95
:101D0C00D35C064A02FB00F0B0FBF3F07047064BC5
:101D1C0003FB00F0704700BF0010024000127A0075
:101D2C00602D00085C2D000800093D00002800F023
:101D3C00A08070B50D460446524B1B6803F0070398
:101D4C008B420BD24F4A136823F007030B431360EB
:101D5C00136803F007038B4240F08D80236813F067
:101D6C00020F17D013F0040F04D0474A536843F402
:101D7C00E0635360236813F0080F04D0424A5368A1
:101D8C0043F460535360404A536823F0F003A16856
:101D9C000B435360236813F0010F31D06368012BA0
:101DAC0020D0022B25D0384A126812F0020F64D0D2
:101DBC0035494A6822F0030213434B60FFF738FAA7
:101DCC000646314B5B6803F00C036268B3EB820F81
:101DDC0016D0FFF72DFA801B41F288339842F0D9C8
:101DEC00032045E0284A126812F4003FE0D101209C
:101DFC003EE0254A126812F0007FD9D1012037E06D
:101E0C00204B1B6803F00703AB420AD91D4A136829
:101E1C0023F007032B431360136803F00703AB4253
:101E2C002DD1236813F0040F06D0174A536823F4FE
:101E3C00E063E1680B435360236813F0080F07D08D
:101E4C00114A536823F46053216943EAC103536078
:101E5C00FFF742FF0C4B5B68C3F303130B4AD35CD5
:101E6C00D8400B4B18600B4B1868FFF79DF90020FE
:101E7C0070BD012070470120FAE70120F8E701202E
:101E8C00F6E700BF00200240001002404C2D000875
:101E9C000000002008000020014B1868704700BFAC
:101EAC000000002008B5FFF7F7FF044B5B68C3F395
:101EBC000223034AD35CD84008BD00BF0010024087
:101ECC00442D000808B5FFF7E7FF044B5B68C3F32C
:101EDC00C223034AD35CD84008BD00BF00100240A7
:101EEC00442D000810B4036A046A24F0010404624F
:101EFC00846924F0F00C4CEA021223F00A030B4321
:101F0C008261036210BC704710B4036A046A24F047
:101F1C0010040462846924F4704C4CEA023223F0FD
:101F2C00A00343EA01138261036210BC704783680B
:101F3C0023F070030B4343F0070383607047704733
:101F4C0070477047704770B504460368DE681D69BA
:101F5C0015F0020F10D016F0020F0DD06FF0020228
:101F6C001A610123037703689B6913F0030F5ED09A
:101F7C00FFF7E6FF0023237715F0040F12D016F0BD
:101F8C00040F0FD023686FF004021A610223237729
:101F9C0023689B6913F4407F4FD02046FFF7D0FF96
:101FAC000023237715F0080F12D016F0080F0FD06E
:101FBC0023686FF008021A61042323772368DB6916
:101FCC0013F0030F40D02046FFF7BAFF002323770E
:101FDC0015F0100F12D016F0100F0FD023686FF001
:101FEC0010021A61082323772368DB6913F4407FFE
:101FFC0031D02046FFF7A4FF0023237715F0010F03
:10200C0002D016F0010F2DD115F0800F02D016F072
:10201C00800F2FD115F0400F02D016F0400F31D1A8
:10202C0015F0200F02D016F0200F33D170BDFFF742
:10203C0086FF2046FFF785FF9CE72046FFF77FFFD2
:10204C002046FFF77EFFABE72046FFF778FF2046E0
:10205C00FFF777FFBAE72046FFF771FF2046FFF73F
:10206C0070FFC9E723686FF001021A612046FEF782
:10207C0011FEC9E723686FF080021A61204600F058
:10208C0042F9C7E723686FF040021A612046FFF758
:10209C0059FFC5E723686FF020021A61204600F053
:1020AC0031F9C3E703681F4A90420AD0B0F1804F60
:1020BC0007D0A2F59432904203D002F58062904290
:1020CC0003D123F070034A681343164A90420AD096
:1020DC00B0F1804F07D0A2F59432904203D002F5B4
:1020EC008062904203D123F44073CA68134323F0F7
:1020FC0080034A69134303608B68C3620B68836275
:10210C00084B98420AD001234361036913F0010F75
:10211C0003D0036923F00103036170470B69036368
:10212C00F1E700BF002C014040B310B5044690F815
:10213C003D30F3B1022384F83D30214651F8040BB5
:10214C00FFF7B0FF012384F8463084F83E3084F862
:10215C003F3084F8403084F8413084F8423084F8C1
:10216C00433084F8443084F8453084F83D30002006
:10217C0010BD80F83C30FEF77FFEDBE70120704796
:10218C0010B4846824F47F4C42EA03220A4342EAE6
:10219C000C02826010BC704790F83C30012B78D058
:1021AC0010B50446012380F83C30022380F83D3002
:1021BC000268936823F47F4323F0770393600B68E2
:1021CC00602B4CD023D8402B54D011D8202B03D0CB
:1021DC000AD80BB1102B05D119462068FFF7A7FEC2
:1021EC00002028E0012026E0302BF5D0012022E051
:1021FC00502B0AD1CA6849680068FFF773FE50215A
:10220C002068FFF794FE002015E0012013E0B3F5E1
:10221C00805F3AD0B3F5005F14D0702B37D1CB6808
:10222C004A6889680068FFF7ABFF2268936843F03F
:10223C00770393600020012384F83D30002384F859
:10224C003C3010BDCB684A6889680068FFF798FF7E
:10225C002268936843F4804393600020EBE7CA68DC
:10226C0049680068FFF750FE60212068FFF75FFEA9
:10227C000020E0E7CA6849680068FFF733FE402198
:10228C002068FFF754FE0020D5E70020D3E701209B
:10229C00D1E702207047000090F83C20012A2CD096
:1022AC0010B40346012280F83C20022280F83D2025
:1022BC0002685068946820F0700C086840EA0C00C2
:1022CC0050601A680E4882420AD0B2F1804F07D093
:1022DC00A0F59430824203D000F58060824204D194
:1022EC0024F08004496821439160012283F83D2049
:1022FC00002083F83C0010BC70470220704700BFE0
:10230C00002C014070477047026802F10C0353E83F
:10231C00003F23F0C0030C3242E800310029F3D116
:10232C00202380F841307047026802F10C0353E817
:10233C00003F23F490730C3242E800310029F3D1B2
:10234C00026802F1140353E8003F23F00103143236
:10235C0042E800310029F3D1036B012B05D0202377
:10236C0080F84230002303637047026802F10C03CB
:10237C0053E8003F23F010030C3242E800310029EF
:10238C00F3D1ECE790F84130212B01D002207047BB
:10239C008368B3F5805F17D0036A5A1C02621A78FF
:1023AC0003685A60C38C9BB2013B9BB2C3844BB98C
:1023BC000268D36823F08003D3600268D36843F0CB
:1023CC004003D360002070470369002BE4D1036AFB
:1023DC001B880268C3F308035360036A0233036269
:1023EC00E0E7000010B504460268136923F440537B
:1023FC00C1680B43136183680269134342691A4332
:10240C000168CB6823F4B05323F00C031343CB6067
:10241C000268536923F4407381690B43536102686A
:10242C00134B9A4220D0FFF73DFD024602EB82028D
:10243C0002EB820263689B00B2FBF3F20D48A0FB37
:10244C0002314909642303FB11231B013233A0FB26
:10245C0003035B0903F0F00202EB011203F00F031C
:10246C00216813448B6010BDFFF72CFD0246DDE79D
:10247C00003801401F85EB5160B310B5044690F84D
:10248C00413013B3242384F841302268D36823F4F9
:10249C000053D3602046FFF7A5FF2268136923F48D
:1024AC00904313612268536923F02A035361226815
:1024BC00D36843F40053D36000206064202384F875
:1024CC00413084F84230606310BD80F84030FEF734
:1024DC0041FDD7E70120704710B5044603685B69DE
:1024EC0090F84120212A09D023685B6903F040034E
:1024FC0094F84220222A19D0002010BD03F080034A
:10250C00002BF1D0226802F1140353E8003F23F0B2
:10251C008003143242E800310029F3D1A06B08B1DA
:10252C00FEF79CFF2046FFF7EFFEDDE7002BE3D024
:10253C00226802F1140353E8003F23F040031432E5
:10254C0042E800310029F3D1E06B08B1FEF786FFB9
:10255C002046FFF7E9FECFE7704708B50168CA6867
:10256C0022F04002CA60202280F84120FFF7F4FFDD
:10257C00002008BD7047704710B5446A23685B693A
:10258C0094F84120212A0FD023685B6903F04003A3
:10259C0094F84220222A11D0636C43F01003636438
:1025AC002046FFF7E8FF10BD03F08003002BEBD0B3
:1025BC000023E3842046FFF7A7FEE5E7002BEBD0D2
:1025CC000023E3852046FFF7AFFEE5E708B5406A38
:1025DC000023C385C384FFF7CEFF08BD704790F876
:1025EC004230222B69D18368B3F5805F4FD0826A69
:1025FC00B3F5805F04D0002B56D10369002B53D167
:10260C0003685B681370836A01338362C38D9BB26A
:10261C00013B9BB2C385002B51D100B583B002683E
:10262C00D36823F02003D3600268D36823F480734B
:10263C00D3600268536923F001035361202380F8AF
:10264C00423000234363036B012B33D1002303631C
:10265C00026802F10C0353E8003F23F010030C3224
:10266C0042E800310029F3D103681A6812F0100F08
:10267C0006D0002201921A6801925B680193019BBB
:10268C00818DFFF7ABFF002003B05DF804FB0269FE
:10269C00002AACD1826A03685B68C3F30803138019
:1026AC00836A02338362B1E703685B6803F07F03DC
:1026BC001370A8E7FEF740FAE5E702207047002008
:1026CC007047000010B582B0044602681368D068E9
:1026DC00516913F00F0F09D113F0200F0CD010F02B
:1026EC00200F09D02046FFF77AFF16E011F0010108
:1026FC0015D110F4907F12D1216B012979D013F0F0
:10270C00800F03D010F0800F40F0138113F0400FB6
:10271C0003D010F0400F40F0108102B010BD13F048
:10272C00010F06D010F4807F03D0626C42F00102DE
:10273C00626413F0040F04D019B1626C42F002020F
:10274C00626413F0020F04D019B1626C42F00402FF
:10275C00626413F0080F07D010F0200F00D119B1EC
:10276C00626C42F008026264626C002AD5D013F0ED
:10277C00200F02D010F0200F29D123685B6903F0E1
:10278C004003626C12F0080F00D163B32046FFF7D0
:10279C00CBFD23685B6913F0400F20D0226802F157
:1027AC00140353E8003F23F04003143242E8003195
:1027BC000029F3D1E36B73B1624A5A63E06BFEF705
:1027CC006FFE0028A9D0E06B436B9847A5E7204625
:1027DC00FFF705FFD1E72046FFF7CDFE9DE720462A
:1027EC00FFF7C9FE99E72046FFF7C5FE0023636497
:1027FC0093E713F0100F82D010F0100F3FF47FAF5F
:10280C00002301931368019353680193019B53694F
:10281C0013F0400F51D0E26B13685B689BB2002B36
:10282C003FF47BAFA18D99427FF677AFE385936937
:10283C00202B37D0226802F10C0353E8003F23F41D
:10284C0080730C3242E800310029F3D1226802F186
:10285C00140353E8003F23F00103143242E8003123
:10286C000029F3D1226802F1140353E8003F23F04E
:10287C004003143242E800310029F3D1202384F8BC
:10288C00423000232363226802F10C0353E8003F1B
:10289C0023F010030C3242E800310029F3D1E06B35
:1028AC00FEF7DCFD02236363A18DE38D9BB2C91A95
:1028BC0089B22046FFF792FE2FE7A18DE38D9BB2E4
:1028CC00C91A89B2E38D9BB2002B3FF426AF0029C5
:1028DC003FF423AF226802F10C0353E8003F23F4CA
:1028EC0090730C3242E800300028F3D1226802F1D8
:1028FC00140353E8003F23F00103143242E8003084
:10290C000028F3D1202384F842300023236322686B
:10291C0002F10C0353E8003F23F010030C3242E8A1
:10292C0000300028F3D1022363632046FFF756FEE4
:10293C00F3E62046FFF726FDEFE62046FFF70DFEF7
:10294C00EBE600BFD925000808B5406A01234363B4
:10295C00036B012B02D0FFF70DFE08BD818D4908DA
:10296C00FFF73CFEF9E708B50346406A1B681B6895
:10297C0013F0200F2BD10023C385026802F10C0346
:10298C0053E8003F23F480730C3242E800310029F5
:10299C00F3D1026802F1140353E8003F23F0010362
:1029AC00143242E800310029F3D1026802F1140319
:1029BC0053E8003F23F04003143242E80031002971
:1029CC00F3D1202380F84230036B012B07D0002376
:1029DC004363036B012B0FD0FEF7AEF808BD026802
:1029EC0002F10C0353E8003F23F010030C3242E8D1
:1029FC0000310029F3D1EAE7818DFFF7EFFDEDE718
:102A0C0030B583B004461346816282850025456447
:102A1C00222280F84220C26B1F489062E26B1F4852
:102A2C00D062E26B1E481063E26B556320680A4665
:102A3C00011DE06BFEF7D8FC019523681A68019222
:102A4C005B680193019B23695BB1226802F10C0363
:102A5C0053E8003F43F480730C3242E80031002904
:102A6C00F3D1226802F1140353E8003F43F0010351
:102A7C00143242E800310029F3D1226802F1140328
:102A8C0053E8003F43F04003143242E80031002980
:102A9C00F3D1002003B030BD73290008552900087C
:102AAC008525000808B590F84230202B08D149B193
:102ABC000AB9012008BD00230363FFF7A1FFF9E762
:102ACC000220F7E70120F5E703460244934200D1C8
:102ADC00704703F8011BF9E770B500260C4D0D4B40
:102AEC005B1B9C10A64209D1002600F019F80A4D78
:102AFC000A4B5B1B9C10A64205D170BD55F8043BDC
:102B0C0098470136EEE755F8043B98470136F2E753
:102B1C00702D0008702D0008702D0008742D000811
:102B2C00F8B500BFF8BC08BC9E467047F8B500BFAE
:082B3C00F8BC08BC9E4670477E
:102B440000C0C101C30302C2C60607C705C5C40449
:102B5400CC0C0DCD0FCFCE0E0ACACB0BC90908C8B9
:102B6400D81819D91BDBDA1A1EDEDF1FDD1D1CDCA9
:102B740014D4D515D71716D6D21213D311D1D01019
:102B8400F03031F133F3F23236F6F737F53534F409
:102B94003CFCFD3DFF3F3EFEFA3A3BFB39F9F83879
:102BA40028E8E929EB2B2AEAEE2E2FEF2DEDEC2C69
:102BB400E42425E527E7E62622E2E323E12120E0D9
:102BC400A06061A163A3A26266A6A767A56564A4C9
:102BD4006CACAD6DAF6F6EAEAA6A6BAB69A9A86839
:102BE40078B8B979BB7B7ABABE7E7FBF7DBDBC7C29
:102BF400B47475B577B7B67672B2B373B17170B099
:102C04005090915193535292965657975595945488
:102C14009C5C5D9D5F9F9E5E5A9A9B5B99595898F8
:102C2400884849894B8B8A4A4E8E8F4F8D4D4C8CE8
:102C34004484854587474686824243834181804058
:102C440000C1814001C0804101C0804100C1814078
:102C540001C0804100C1814000C1814001C0804168
:102C640001C0804100C1814000C1814001C0804158
:102C740000C1814001C0804101C0804100C1814048
:102C840001C0804100C1814000C1814001C0804138
:102C940000C1814001C0804101C0804100C1814028
:102CA40000C1814001C0804101C0804100C1814018
:102CB40001C0804100C1814000C1814001C0804108
:102CC40001C0804100C1814000C1814001C08041F8
:102CD40000C1814001C0804101C0804100C18140E8
:102CE40000C1814001C0804101C0804100C18140D8
:102CF40001C0804100C1814000C1814001C08041C8
:102D040000C1814001C0804101C0804100C18140B7
:102D140001C0804100C1814000C1814001C08041A7
:102D240001C0804100C1814000C1814001C0804197
:102D340000C1814001C0804101C0804100C1814087
:102D44000000000001020304000000000000000075
:102D54000102030406070809010200000203040536
:0C2D6400060708090A0B0C0D0E0F1010DA
:042D70003106000820
:042D74000906000844
:0C2D780000127A000100000010000000B2
:040000050800116975
:00000001FF
